{
	"contracts/SimpleStorage.sol": {
		"SimpleStorage": {
			"abi": [
				{
					"inputs": [
						{
							"internalType": "uint256",
							"name": "_id",
							"type": "uint256"
						}
					],
					"name": "get",
					"outputs": [
						{
							"components": [
								{
									"internalType": "uint256",
									"name": "tarih",
									"type": "uint256"
								},
								{
									"internalType": "uint256",
									"name": "fiyat",
									"type": "uint256"
								}
							],
							"internalType": "struct SimpleStorage.satis",
							"name": "",
							"type": "tuple"
						}
					],
					"stateMutability": "view",
					"type": "function"
				},
				{
					"inputs": [
						{
							"internalType": "uint256",
							"name": "",
							"type": "uint256"
						}
					],
					"name": "mockDb",
					"outputs": [
						{
							"internalType": "uint256",
							"name": "tarih",
							"type": "uint256"
						},
						{
							"internalType": "uint256",
							"name": "fiyat",
							"type": "uint256"
						}
					],
					"stateMutability": "view",
					"type": "function"
				},
				{
					"inputs": [
						{
							"internalType": "uint256",
							"name": "_id",
							"type": "uint256"
						},
						{
							"internalType": "uint256",
							"name": "_tarih",
							"type": "uint256"
						},
						{
							"internalType": "uint256",
							"name": "_fiyat",
							"type": "uint256"
						}
					],
					"name": "set",
					"outputs": [],
					"stateMutability": "nonpayable",
					"type": "function"
				}
			],
			"devdoc": {
				"kind": "dev",
				"methods": {},
				"version": 1
			},
			"evm": {
				"assembly": "    /* \"contracts/SimpleStorage.sol\":58:435  contract SimpleStorage {\r... */\n  mstore(0x40, 0x80)\n  callvalue\n  dup1\n  iszero\n  tag_1\n  jumpi\n  0x00\n  dup1\n  revert\ntag_1:\n  pop\n  dataSize(sub_0)\n  dup1\n  dataOffset(sub_0)\n  0x00\n  codecopy\n  0x00\n  return\nstop\n\nsub_0: assembly {\n        /* \"contracts/SimpleStorage.sol\":58:435  contract SimpleStorage {\r... */\n      mstore(0x40, 0x80)\n      callvalue\n      dup1\n      iszero\n      tag_1\n      jumpi\n      0x00\n      dup1\n      revert\n    tag_1:\n      pop\n      jumpi(tag_2, lt(calldatasize, 0x04))\n      shr(0xe0, calldataload(0x00))\n      dup1\n      0x43b0e8df\n      eq\n      tag_3\n      jumpi\n      dup1\n      0x60bcaf90\n      eq\n      tag_4\n      jumpi\n      dup1\n      0x9507d39a\n      eq\n      tag_5\n      jumpi\n    tag_2:\n      0x00\n      dup1\n      revert\n        /* \"contracts/SimpleStorage.sol\":220:333  function set(uint256 _id, uint256 _tarih, uint256 _fiyat) public {\r... */\n    tag_3:\n      tag_6\n      0x04\n      dup1\n      calldatasize\n      sub\n      dup2\n      add\n      swap1\n      tag_7\n      swap2\n      swap1\n      tag_8\n      jump\t// in\n    tag_7:\n      tag_9\n      jump\t// in\n    tag_6:\n      stop\n        /* \"contracts/SimpleStorage.sol\":173:213  mapping (uint256 => satis) public mockDb */\n    tag_4:\n      tag_10\n      0x04\n      dup1\n      calldatasize\n      sub\n      dup2\n      add\n      swap1\n      tag_11\n      swap2\n      swap1\n      tag_12\n      jump\t// in\n    tag_11:\n      tag_13\n      jump\t// in\n    tag_10:\n      mload(0x40)\n      tag_14\n      swap3\n      swap2\n      swap1\n      tag_15\n      jump\t// in\n    tag_14:\n      mload(0x40)\n      dup1\n      swap2\n      sub\n      swap1\n      return\n        /* \"contracts/SimpleStorage.sol\":339:432  function get(uint256 _id) public view  returns (satis memory) {\r... */\n    tag_5:\n      tag_16\n      0x04\n      dup1\n      calldatasize\n      sub\n      dup2\n      add\n      swap1\n      tag_17\n      swap2\n      swap1\n      tag_12\n      jump\t// in\n    tag_17:\n      tag_18\n      jump\t// in\n    tag_16:\n      mload(0x40)\n      tag_19\n      swap2\n      swap1\n      tag_20\n      jump\t// in\n    tag_19:\n      mload(0x40)\n      dup1\n      swap2\n      sub\n      swap1\n      return\n        /* \"contracts/SimpleStorage.sol\":220:333  function set(uint256 _id, uint256 _tarih, uint256 _fiyat) public {\r... */\n    tag_9:\n        /* \"contracts/SimpleStorage.sol\":306:327  satis(_tarih, _fiyat) */\n      mload(0x40)\n      dup1\n      0x40\n      add\n      0x40\n      mstore\n      dup1\n        /* \"contracts/SimpleStorage.sol\":312:318  _tarih */\n      dup4\n        /* \"contracts/SimpleStorage.sol\":306:327  satis(_tarih, _fiyat) */\n      dup2\n      mstore\n      0x20\n      add\n        /* \"contracts/SimpleStorage.sol\":320:326  _fiyat */\n      dup3\n        /* \"contracts/SimpleStorage.sol\":306:327  satis(_tarih, _fiyat) */\n      dup2\n      mstore\n      pop\n        /* \"contracts/SimpleStorage.sol\":292:298  mockDb */\n      0x01\n        /* \"contracts/SimpleStorage.sol\":292:303  mockDb[_id] */\n      0x00\n        /* \"contracts/SimpleStorage.sol\":299:302  _id */\n      dup6\n        /* \"contracts/SimpleStorage.sol\":292:303  mockDb[_id] */\n      dup2\n      mstore\n      0x20\n      add\n      swap1\n      dup2\n      mstore\n      0x20\n      add\n      0x00\n      keccak256\n        /* \"contracts/SimpleStorage.sol\":292:327  mockDb[_id] = satis(_tarih, _fiyat) */\n      0x00\n      dup3\n      add\n      mload\n      dup2\n      0x00\n      add\n      sstore\n      0x20\n      dup3\n      add\n      mload\n      dup2\n      0x01\n      add\n      sstore\n      swap1\n      pop\n      pop\n        /* \"contracts/SimpleStorage.sol\":220:333  function set(uint256 _id, uint256 _tarih, uint256 _fiyat) public {\r... */\n      pop\n      pop\n      pop\n      jump\t// out\n        /* \"contracts/SimpleStorage.sol\":173:213  mapping (uint256 => satis) public mockDb */\n    tag_13:\n      mstore(0x20, 0x01)\n      dup1\n      0x00\n      mstore\n      keccak256(0x00, 0x40)\n      0x00\n      swap2\n      pop\n      swap1\n      pop\n      dup1\n      0x00\n      add\n      sload\n      swap1\n      dup1\n      0x01\n      add\n      sload\n      swap1\n      pop\n      dup3\n      jump\t// out\n        /* \"contracts/SimpleStorage.sol\":339:432  function get(uint256 _id) public view  returns (satis memory) {\r... */\n    tag_18:\n        /* \"contracts/SimpleStorage.sol\":387:399  satis memory */\n      tag_22\n      tag_23\n      jump\t// in\n    tag_22:\n        /* \"contracts/SimpleStorage.sol\":415:421  mockDb */\n      0x01\n        /* \"contracts/SimpleStorage.sol\":415:426  mockDb[_id] */\n      0x00\n        /* \"contracts/SimpleStorage.sol\":422:425  _id */\n      dup4\n        /* \"contracts/SimpleStorage.sol\":415:426  mockDb[_id] */\n      dup2\n      mstore\n      0x20\n      add\n      swap1\n      dup2\n      mstore\n      0x20\n      add\n      0x00\n      keccak256\n        /* \"contracts/SimpleStorage.sol\":408:426  return mockDb[_id] */\n      mload(0x40)\n      dup1\n      0x40\n      add\n      0x40\n      mstore\n      swap1\n      dup2\n      0x00\n      dup3\n      add\n      sload\n      dup2\n      mstore\n      0x20\n      add\n      0x01\n      dup3\n      add\n      sload\n      dup2\n      mstore\n      pop\n      pop\n      swap1\n      pop\n        /* \"contracts/SimpleStorage.sol\":339:432  function get(uint256 _id) public view  returns (satis memory) {\r... */\n      swap2\n      swap1\n      pop\n      jump\t// out\n    tag_23:\n      mload(0x40)\n      dup1\n      0x40\n      add\n      0x40\n      mstore\n      dup1\n      0x00\n      dup2\n      mstore\n      0x20\n      add\n      0x00\n      dup2\n      mstore\n      pop\n      swap1\n      jump\t// out\n        /* \"#utility.yul\":7:146   */\n    tag_26:\n      0x00\n        /* \"#utility.yul\":91:97   */\n      dup2\n        /* \"#utility.yul\":78:98   */\n      calldataload\n        /* \"#utility.yul\":69:98   */\n      swap1\n      pop\n        /* \"#utility.yul\":107:140   */\n      tag_28\n        /* \"#utility.yul\":134:139   */\n      dup2\n        /* \"#utility.yul\":107:140   */\n      tag_29\n      jump\t// in\n    tag_28:\n        /* \"#utility.yul\":59:146   */\n      swap3\n      swap2\n      pop\n      pop\n      jump\t// out\n        /* \"#utility.yul\":152:414   */\n    tag_12:\n      0x00\n        /* \"#utility.yul\":260:262   */\n      0x20\n        /* \"#utility.yul\":248:257   */\n      dup3\n        /* \"#utility.yul\":239:246   */\n      dup5\n        /* \"#utility.yul\":235:258   */\n      sub\n        /* \"#utility.yul\":231:263   */\n      slt\n        /* \"#utility.yul\":228:230   */\n      iszero\n      tag_31\n      jumpi\n        /* \"#utility.yul\":276:277   */\n      0x00\n        /* \"#utility.yul\":273:274   */\n      dup1\n        /* \"#utility.yul\":266:278   */\n      revert\n        /* \"#utility.yul\":228:230   */\n    tag_31:\n        /* \"#utility.yul\":319:320   */\n      0x00\n        /* \"#utility.yul\":344:397   */\n      tag_32\n        /* \"#utility.yul\":389:396   */\n      dup5\n        /* \"#utility.yul\":380:386   */\n      dup3\n        /* \"#utility.yul\":369:378   */\n      dup6\n        /* \"#utility.yul\":365:387   */\n      add\n        /* \"#utility.yul\":344:397   */\n      tag_26\n      jump\t// in\n    tag_32:\n        /* \"#utility.yul\":334:397   */\n      swap2\n      pop\n        /* \"#utility.yul\":290:407   */\n      pop\n        /* \"#utility.yul\":218:414   */\n      swap3\n      swap2\n      pop\n      pop\n      jump\t// out\n        /* \"#utility.yul\":420:972   */\n    tag_8:\n      0x00\n      dup1\n      0x00\n        /* \"#utility.yul\":562:564   */\n      0x60\n        /* \"#utility.yul\":550:559   */\n      dup5\n        /* \"#utility.yul\":541:548   */\n      dup7\n        /* \"#utility.yul\":537:560   */\n      sub\n        /* \"#utility.yul\":533:565   */\n      slt\n        /* \"#utility.yul\":530:532   */\n      iszero\n      tag_34\n      jumpi\n        /* \"#utility.yul\":578:579   */\n      0x00\n        /* \"#utility.yul\":575:576   */\n      dup1\n        /* \"#utility.yul\":568:580   */\n      revert\n        /* \"#utility.yul\":530:532   */\n    tag_34:\n        /* \"#utility.yul\":621:622   */\n      0x00\n        /* \"#utility.yul\":646:699   */\n      tag_35\n        /* \"#utility.yul\":691:698   */\n      dup7\n        /* \"#utility.yul\":682:688   */\n      dup3\n        /* \"#utility.yul\":671:680   */\n      dup8\n        /* \"#utility.yul\":667:689   */\n      add\n        /* \"#utility.yul\":646:699   */\n      tag_26\n      jump\t// in\n    tag_35:\n        /* \"#utility.yul\":636:699   */\n      swap4\n      pop\n        /* \"#utility.yul\":592:709   */\n      pop\n        /* \"#utility.yul\":748:750   */\n      0x20\n        /* \"#utility.yul\":774:827   */\n      tag_36\n        /* \"#utility.yul\":819:826   */\n      dup7\n        /* \"#utility.yul\":810:816   */\n      dup3\n        /* \"#utility.yul\":799:808   */\n      dup8\n        /* \"#utility.yul\":795:817   */\n      add\n        /* \"#utility.yul\":774:827   */\n      tag_26\n      jump\t// in\n    tag_36:\n        /* \"#utility.yul\":764:827   */\n      swap3\n      pop\n        /* \"#utility.yul\":719:837   */\n      pop\n        /* \"#utility.yul\":876:878   */\n      0x40\n        /* \"#utility.yul\":902:955   */\n      tag_37\n        /* \"#utility.yul\":947:954   */\n      dup7\n        /* \"#utility.yul\":938:944   */\n      dup3\n        /* \"#utility.yul\":927:936   */\n      dup8\n        /* \"#utility.yul\":923:945   */\n      add\n        /* \"#utility.yul\":902:955   */\n      tag_26\n      jump\t// in\n    tag_37:\n        /* \"#utility.yul\":892:955   */\n      swap2\n      pop\n        /* \"#utility.yul\":847:965   */\n      pop\n        /* \"#utility.yul\":520:972   */\n      swap3\n      pop\n      swap3\n      pop\n      swap3\n      jump\t// out\n        /* \"#utility.yul\":1042:1541   */\n    tag_38:\n        /* \"#utility.yul\":1179:1183   */\n      0x40\n        /* \"#utility.yul\":1174:1177   */\n      dup3\n        /* \"#utility.yul\":1170:1184   */\n      add\n        /* \"#utility.yul\":1267:1271   */\n      0x00\n        /* \"#utility.yul\":1260:1265   */\n      dup3\n        /* \"#utility.yul\":1256:1272   */\n      add\n        /* \"#utility.yul\":1250:1273   */\n      mload\n        /* \"#utility.yul\":1286:1349   */\n      tag_40\n        /* \"#utility.yul\":1343:1347   */\n      0x00\n        /* \"#utility.yul\":1338:1341   */\n      dup6\n        /* \"#utility.yul\":1334:1348   */\n      add\n        /* \"#utility.yul\":1320:1332   */\n      dup3\n        /* \"#utility.yul\":1286:1349   */\n      tag_41\n      jump\t// in\n    tag_40:\n        /* \"#utility.yul\":1194:1359   */\n      pop\n        /* \"#utility.yul\":1442:1446   */\n      0x20\n        /* \"#utility.yul\":1435:1440   */\n      dup3\n        /* \"#utility.yul\":1431:1447   */\n      add\n        /* \"#utility.yul\":1425:1448   */\n      mload\n        /* \"#utility.yul\":1461:1524   */\n      tag_42\n        /* \"#utility.yul\":1518:1522   */\n      0x20\n        /* \"#utility.yul\":1513:1516   */\n      dup6\n        /* \"#utility.yul\":1509:1523   */\n      add\n        /* \"#utility.yul\":1495:1507   */\n      dup3\n        /* \"#utility.yul\":1461:1524   */\n      tag_41\n      jump\t// in\n    tag_42:\n        /* \"#utility.yul\":1369:1534   */\n      pop\n        /* \"#utility.yul\":1148:1541   */\n      pop\n      pop\n      pop\n      jump\t// out\n        /* \"#utility.yul\":1547:1655   */\n    tag_41:\n        /* \"#utility.yul\":1624:1648   */\n      tag_44\n        /* \"#utility.yul\":1642:1647   */\n      dup2\n        /* \"#utility.yul\":1624:1648   */\n      tag_45\n      jump\t// in\n    tag_44:\n        /* \"#utility.yul\":1619:1622   */\n      dup3\n        /* \"#utility.yul\":1612:1649   */\n      mstore\n        /* \"#utility.yul\":1602:1655   */\n      pop\n      pop\n      jump\t// out\n        /* \"#utility.yul\":1661:1779   */\n    tag_46:\n        /* \"#utility.yul\":1748:1772   */\n      tag_48\n        /* \"#utility.yul\":1766:1771   */\n      dup2\n        /* \"#utility.yul\":1748:1772   */\n      tag_45\n      jump\t// in\n    tag_48:\n        /* \"#utility.yul\":1743:1746   */\n      dup3\n        /* \"#utility.yul\":1736:1773   */\n      mstore\n        /* \"#utility.yul\":1726:1779   */\n      pop\n      pop\n      jump\t// out\n        /* \"#utility.yul\":1785:2087   */\n    tag_20:\n      0x00\n        /* \"#utility.yul\":1956:1958   */\n      0x40\n        /* \"#utility.yul\":1945:1954   */\n      dup3\n        /* \"#utility.yul\":1941:1959   */\n      add\n        /* \"#utility.yul\":1933:1959   */\n      swap1\n      pop\n        /* \"#utility.yul\":1969:2080   */\n      tag_50\n        /* \"#utility.yul\":2077:2078   */\n      0x00\n        /* \"#utility.yul\":2066:2075   */\n      dup4\n        /* \"#utility.yul\":2062:2079   */\n      add\n        /* \"#utility.yul\":2053:2059   */\n      dup5\n        /* \"#utility.yul\":1969:2080   */\n      tag_38\n      jump\t// in\n    tag_50:\n        /* \"#utility.yul\":1923:2087   */\n      swap3\n      swap2\n      pop\n      pop\n      jump\t// out\n        /* \"#utility.yul\":2093:2425   */\n    tag_15:\n      0x00\n        /* \"#utility.yul\":2252:2254   */\n      0x40\n        /* \"#utility.yul\":2241:2250   */\n      dup3\n        /* \"#utility.yul\":2237:2255   */\n      add\n        /* \"#utility.yul\":2229:2255   */\n      swap1\n      pop\n        /* \"#utility.yul\":2265:2336   */\n      tag_52\n        /* \"#utility.yul\":2333:2334   */\n      0x00\n        /* \"#utility.yul\":2322:2331   */\n      dup4\n        /* \"#utility.yul\":2318:2335   */\n      add\n        /* \"#utility.yul\":2309:2315   */\n      dup6\n        /* \"#utility.yul\":2265:2336   */\n      tag_46\n      jump\t// in\n    tag_52:\n        /* \"#utility.yul\":2346:2418   */\n      tag_53\n        /* \"#utility.yul\":2414:2416   */\n      0x20\n        /* \"#utility.yul\":2403:2412   */\n      dup4\n        /* \"#utility.yul\":2399:2417   */\n      add\n        /* \"#utility.yul\":2390:2396   */\n      dup5\n        /* \"#utility.yul\":2346:2418   */\n      tag_46\n      jump\t// in\n    tag_53:\n        /* \"#utility.yul\":2219:2425   */\n      swap4\n      swap3\n      pop\n      pop\n      pop\n      jump\t// out\n        /* \"#utility.yul\":2431:2508   */\n    tag_45:\n      0x00\n        /* \"#utility.yul\":2497:2502   */\n      dup2\n        /* \"#utility.yul\":2486:2502   */\n      swap1\n      pop\n        /* \"#utility.yul\":2476:2508   */\n      swap2\n      swap1\n      pop\n      jump\t// out\n        /* \"#utility.yul\":2514:2636   */\n    tag_29:\n        /* \"#utility.yul\":2587:2611   */\n      tag_56\n        /* \"#utility.yul\":2605:2610   */\n      dup2\n        /* \"#utility.yul\":2587:2611   */\n      tag_45\n      jump\t// in\n    tag_56:\n        /* \"#utility.yul\":2580:2585   */\n      dup2\n        /* \"#utility.yul\":2577:2612   */\n      eq\n        /* \"#utility.yul\":2567:2569   */\n      tag_57\n      jumpi\n        /* \"#utility.yul\":2626:2627   */\n      0x00\n        /* \"#utility.yul\":2623:2624   */\n      dup1\n        /* \"#utility.yul\":2616:2628   */\n      revert\n        /* \"#utility.yul\":2567:2569   */\n    tag_57:\n        /* \"#utility.yul\":2557:2636   */\n      pop\n      jump\t// out\n\n    auxdata: 0xa26469706673582212206297af8e9cc2f12eed5f1c8b58f3132792c8cb1dbb44e3003f168e66afb5538c64736f6c63430008000033\n}\n",
				"bytecode": {
					"linkReferences": {},
					"object": "608060405234801561001057600080fd5b506102fb806100206000396000f3fe608060405234801561001057600080fd5b50600436106100415760003560e01c806343b0e8df1461004657806360bcaf90146100625780639507d39a14610093575b600080fd5b610060600480360381019061005b91906101c4565b6100c3565b005b61007c6004803603810190610077919061019b565b610107565b60405161008a92919061027b565b60405180910390f35b6100ad60048036038101906100a8919061019b565b61012b565b6040516100ba9190610260565b60405180910390f35b604051806040016040528083815260200182815250600160008581526020019081526020016000206000820151816000015560208201518160010155905050505050565b60016020528060005260406000206000915090508060000154908060010154905082565b61013361016c565b60016000838152602001908152602001600020604051806040016040529081600082015481526020016001820154815250509050919050565b604051806040016040528060008152602001600081525090565b600081359050610195816102ae565b92915050565b6000602082840312156101ad57600080fd5b60006101bb84828501610186565b91505092915050565b6000806000606084860312156101d957600080fd5b60006101e786828701610186565b93505060206101f886828701610186565b925050604061020986828701610186565b9150509250925092565b6040820160008201516102296000850182610242565b50602082015161023c6020850182610242565b50505050565b61024b816102a4565b82525050565b61025a816102a4565b82525050565b60006040820190506102756000830184610213565b92915050565b60006040820190506102906000830185610251565b61029d6020830184610251565b9392505050565b6000819050919050565b6102b7816102a4565b81146102c257600080fd5b5056fea26469706673582212206297af8e9cc2f12eed5f1c8b58f3132792c8cb1dbb44e3003f168e66afb5538c64736f6c63430008000033",
					"opcodes": "PUSH1 0x80 PUSH1 0x40 MSTORE CALLVALUE DUP1 ISZERO PUSH2 0x10 JUMPI PUSH1 0x0 DUP1 REVERT JUMPDEST POP PUSH2 0x2FB DUP1 PUSH2 0x20 PUSH1 0x0 CODECOPY PUSH1 0x0 RETURN INVALID PUSH1 0x80 PUSH1 0x40 MSTORE CALLVALUE DUP1 ISZERO PUSH2 0x10 JUMPI PUSH1 0x0 DUP1 REVERT JUMPDEST POP PUSH1 0x4 CALLDATASIZE LT PUSH2 0x41 JUMPI PUSH1 0x0 CALLDATALOAD PUSH1 0xE0 SHR DUP1 PUSH4 0x43B0E8DF EQ PUSH2 0x46 JUMPI DUP1 PUSH4 0x60BCAF90 EQ PUSH2 0x62 JUMPI DUP1 PUSH4 0x9507D39A EQ PUSH2 0x93 JUMPI JUMPDEST PUSH1 0x0 DUP1 REVERT JUMPDEST PUSH2 0x60 PUSH1 0x4 DUP1 CALLDATASIZE SUB DUP2 ADD SWAP1 PUSH2 0x5B SWAP2 SWAP1 PUSH2 0x1C4 JUMP JUMPDEST PUSH2 0xC3 JUMP JUMPDEST STOP JUMPDEST PUSH2 0x7C PUSH1 0x4 DUP1 CALLDATASIZE SUB DUP2 ADD SWAP1 PUSH2 0x77 SWAP2 SWAP1 PUSH2 0x19B JUMP JUMPDEST PUSH2 0x107 JUMP JUMPDEST PUSH1 0x40 MLOAD PUSH2 0x8A SWAP3 SWAP2 SWAP1 PUSH2 0x27B JUMP JUMPDEST PUSH1 0x40 MLOAD DUP1 SWAP2 SUB SWAP1 RETURN JUMPDEST PUSH2 0xAD PUSH1 0x4 DUP1 CALLDATASIZE SUB DUP2 ADD SWAP1 PUSH2 0xA8 SWAP2 SWAP1 PUSH2 0x19B JUMP JUMPDEST PUSH2 0x12B JUMP JUMPDEST PUSH1 0x40 MLOAD PUSH2 0xBA SWAP2 SWAP1 PUSH2 0x260 JUMP JUMPDEST PUSH1 0x40 MLOAD DUP1 SWAP2 SUB SWAP1 RETURN JUMPDEST PUSH1 0x40 MLOAD DUP1 PUSH1 0x40 ADD PUSH1 0x40 MSTORE DUP1 DUP4 DUP2 MSTORE PUSH1 0x20 ADD DUP3 DUP2 MSTORE POP PUSH1 0x1 PUSH1 0x0 DUP6 DUP2 MSTORE PUSH1 0x20 ADD SWAP1 DUP2 MSTORE PUSH1 0x20 ADD PUSH1 0x0 KECCAK256 PUSH1 0x0 DUP3 ADD MLOAD DUP2 PUSH1 0x0 ADD SSTORE PUSH1 0x20 DUP3 ADD MLOAD DUP2 PUSH1 0x1 ADD SSTORE SWAP1 POP POP POP POP POP JUMP JUMPDEST PUSH1 0x1 PUSH1 0x20 MSTORE DUP1 PUSH1 0x0 MSTORE PUSH1 0x40 PUSH1 0x0 KECCAK256 PUSH1 0x0 SWAP2 POP SWAP1 POP DUP1 PUSH1 0x0 ADD SLOAD SWAP1 DUP1 PUSH1 0x1 ADD SLOAD SWAP1 POP DUP3 JUMP JUMPDEST PUSH2 0x133 PUSH2 0x16C JUMP JUMPDEST PUSH1 0x1 PUSH1 0x0 DUP4 DUP2 MSTORE PUSH1 0x20 ADD SWAP1 DUP2 MSTORE PUSH1 0x20 ADD PUSH1 0x0 KECCAK256 PUSH1 0x40 MLOAD DUP1 PUSH1 0x40 ADD PUSH1 0x40 MSTORE SWAP1 DUP2 PUSH1 0x0 DUP3 ADD SLOAD DUP2 MSTORE PUSH1 0x20 ADD PUSH1 0x1 DUP3 ADD SLOAD DUP2 MSTORE POP POP SWAP1 POP SWAP2 SWAP1 POP JUMP JUMPDEST PUSH1 0x40 MLOAD DUP1 PUSH1 0x40 ADD PUSH1 0x40 MSTORE DUP1 PUSH1 0x0 DUP2 MSTORE PUSH1 0x20 ADD PUSH1 0x0 DUP2 MSTORE POP SWAP1 JUMP JUMPDEST PUSH1 0x0 DUP2 CALLDATALOAD SWAP1 POP PUSH2 0x195 DUP2 PUSH2 0x2AE JUMP JUMPDEST SWAP3 SWAP2 POP POP JUMP JUMPDEST PUSH1 0x0 PUSH1 0x20 DUP3 DUP5 SUB SLT ISZERO PUSH2 0x1AD JUMPI PUSH1 0x0 DUP1 REVERT JUMPDEST PUSH1 0x0 PUSH2 0x1BB DUP5 DUP3 DUP6 ADD PUSH2 0x186 JUMP JUMPDEST SWAP2 POP POP SWAP3 SWAP2 POP POP JUMP JUMPDEST PUSH1 0x0 DUP1 PUSH1 0x0 PUSH1 0x60 DUP5 DUP7 SUB SLT ISZERO PUSH2 0x1D9 JUMPI PUSH1 0x0 DUP1 REVERT JUMPDEST PUSH1 0x0 PUSH2 0x1E7 DUP7 DUP3 DUP8 ADD PUSH2 0x186 JUMP JUMPDEST SWAP4 POP POP PUSH1 0x20 PUSH2 0x1F8 DUP7 DUP3 DUP8 ADD PUSH2 0x186 JUMP JUMPDEST SWAP3 POP POP PUSH1 0x40 PUSH2 0x209 DUP7 DUP3 DUP8 ADD PUSH2 0x186 JUMP JUMPDEST SWAP2 POP POP SWAP3 POP SWAP3 POP SWAP3 JUMP JUMPDEST PUSH1 0x40 DUP3 ADD PUSH1 0x0 DUP3 ADD MLOAD PUSH2 0x229 PUSH1 0x0 DUP6 ADD DUP3 PUSH2 0x242 JUMP JUMPDEST POP PUSH1 0x20 DUP3 ADD MLOAD PUSH2 0x23C PUSH1 0x20 DUP6 ADD DUP3 PUSH2 0x242 JUMP JUMPDEST POP POP POP POP JUMP JUMPDEST PUSH2 0x24B DUP2 PUSH2 0x2A4 JUMP JUMPDEST DUP3 MSTORE POP POP JUMP JUMPDEST PUSH2 0x25A DUP2 PUSH2 0x2A4 JUMP JUMPDEST DUP3 MSTORE POP POP JUMP JUMPDEST PUSH1 0x0 PUSH1 0x40 DUP3 ADD SWAP1 POP PUSH2 0x275 PUSH1 0x0 DUP4 ADD DUP5 PUSH2 0x213 JUMP JUMPDEST SWAP3 SWAP2 POP POP JUMP JUMPDEST PUSH1 0x0 PUSH1 0x40 DUP3 ADD SWAP1 POP PUSH2 0x290 PUSH1 0x0 DUP4 ADD DUP6 PUSH2 0x251 JUMP JUMPDEST PUSH2 0x29D PUSH1 0x20 DUP4 ADD DUP5 PUSH2 0x251 JUMP JUMPDEST SWAP4 SWAP3 POP POP POP JUMP JUMPDEST PUSH1 0x0 DUP2 SWAP1 POP SWAP2 SWAP1 POP JUMP JUMPDEST PUSH2 0x2B7 DUP2 PUSH2 0x2A4 JUMP JUMPDEST DUP2 EQ PUSH2 0x2C2 JUMPI PUSH1 0x0 DUP1 REVERT JUMPDEST POP JUMP INVALID LOG2 PUSH5 0x6970667358 0x22 SLT KECCAK256 PUSH3 0x97AF8E SWAP13 0xC2 CALL 0x2E 0xED 0x5F SHR DUP12 PC RETURN SGT 0x27 SWAP3 0xC8 0xCB SAR 0xBB DIFFICULTY 0xE3 STOP EXTCODEHASH AND DUP15 PUSH7 0xAFB5538C64736F PUSH13 0x63430008000033000000000000 "
				},
				"gasEstimates": {
					"creation": {
						"codeDepositCost": "152600",
						"executionCost": "196",
						"totalCost": "152796"
					},
					"external": {
						"get(uint256)": "infinite",
						"mockDb(uint256)": "infinite",
						"set(uint256,uint256,uint256)": "infinite"
					}
				},
				"methodIdentifiers": {
					"get(uint256)": "9507d39a",
					"mockDb(uint256)": "60bcaf90",
					"set(uint256,uint256,uint256)": "43b0e8df"
				}
			},
			"storageLayout": {
				"storage": [
					{
						"astId": 3,
						"contract": "contracts/SimpleStorage.sol:SimpleStorage",
						"label": "storedData",
						"offset": 0,
						"slot": "0",
						"type": "t_uint256"
					},
					{
						"astId": 13,
						"contract": "contracts/SimpleStorage.sol:SimpleStorage",
						"label": "mockDb",
						"offset": 0,
						"slot": "1",
						"type": "t_mapping(t_uint256,t_struct(satis)8_storage)"
					}
				],
				"types": {
					"t_mapping(t_uint256,t_struct(satis)8_storage)": {
						"encoding": "mapping",
						"key": "t_uint256",
						"label": "mapping(uint256 => struct SimpleStorage.satis)",
						"numberOfBytes": "32",
						"value": "t_struct(satis)8_storage"
					},
					"t_struct(satis)8_storage": {
						"encoding": "inplace",
						"label": "struct SimpleStorage.satis",
						"members": [
							{
								"astId": 5,
								"contract": "contracts/SimpleStorage.sol:SimpleStorage",
								"label": "tarih",
								"offset": 0,
								"slot": "0",
								"type": "t_uint256"
							},
							{
								"astId": 7,
								"contract": "contracts/SimpleStorage.sol:SimpleStorage",
								"label": "fiyat",
								"offset": 0,
								"slot": "1",
								"type": "t_uint256"
							}
						],
						"numberOfBytes": "64"
					},
					"t_uint256": {
						"encoding": "inplace",
						"label": "uint256",
						"numberOfBytes": "32"
					}
				}
			},
			"userdoc": {
				"kind": "user",
				"methods": {},
				"version": 1
			}
		}
	}
}